S011000050726F6A6563745F312E73726563AC
S11300000C944B000C9468000C9468000C946800E9
S11300100C9468000C9468000C9468000C946800BC
S11300200C9468000C9468000C9468000C946800AC
S11300300C9468000C9468000C9468000C9468009C
S11300400C9468000C9468000C9468000C9468008C
S11300500C9468000C9468000C9468000C9468007C
S11300600C9468000C946800084AD73B3BCE016EA0
S113007084BCBFFDC12F3D6C74319ABD56833DDAFB
S11300803D00C77F11BED9E4BB4C3E916BAAAABE0A
S1130090000000803F0011241FBECFEFD8E0DEBF78
S11300A0CDBF11E0A0E0B1E0E2E5F8E002C00590C8
S11300B00D92A030B107D9F721E0A0E0B1E001C072
S11300C01D92A030B207E1F70E9469010C94270445
S11300D00C94000081E008950E94BF000E94DB029E
S11300E0862F089581E00895843151F018F48A3000
S11300F029F40CC08E3131F0883231F080E008955B
S11301008EE1089588E2089582E3089584E10895D4
S113011081E0089581E00895089508950E943F01C3
S11301200E94530180E00E9447010E94530180E72E
S11301300E9447010E9453010E9443010E943F0113
S11301400E94530181E00E9447010E94530180EA0A
S11301500E9447010E9453010E9443010E943F01F3
S11301600E94530182E00E9447010E94530180E0F3
S11301700E9447010E9453010E9443010895CF92B7
S1130180DF92EF92FF92CF930E943F010E945301AE
S11301908CE30E9447010E94530183E00E944701BF
S11301A00E9453010E9443010E943F010E94530197
S11301B08DE30E9447010E9453010E944D01F82ED5
S11301C00E9453010E944D010E9453010E944D015F
S11301D0C82F0E9453010E9443016F2D70E080E0FC
S11301E090E00E9409036B017C016C2F70E080E0B9
S11301F090E00E940903A70196010E94200220E0DA
S113020030E044E353E40E94C1032BED3FE049E4B2
S113021050E40E94730220E030E044E353E40E947F
S1130220AD01CF91FF90EF90DF90CF9008950895A6
S1130230089581E0089581E0089585B5816085BDC4
S113024016BC0895E0E8F0E0808182688083E1E8EC
S1130250F0E08081896180838FE990E0909387004A
S11302608093860008958FEF84B908951092B900A1
S11302708CE08093B80084E08093BC00089584EA05
S11302808093BC00089584E98093BC000895809312
S1130290BB0084E88093BC00089584EC8093BC0088
S11302A08091BB0008958BE590E0ECEBF0E02081B9
S11302B0222314F00197D9F708951092C50087E618
S11302C08093C40088E18093C10086E08093C200DB
S11302D008950E945D010E9433010E9422010E9440
S11302E01D010E9436010E948E000E9417010E9487
S11302F018010E941901C82F0E941B0181110DC011
S113030060E08C2F0E946A00D82F60E08C2F0E943E
S11303107200C82FD11105C001C0C0E080E00E9466
S113032074000E946C00682F8C2F0E948800C82FD4
S11303300E948A000E948D008C2F0E948C00E0ECA9
S1130340F0E0A6ECB0E080818823ECF79C918081FA
S113035085FFFDCF9C93F7CF5058BB27AA270ED01B
S1130360CFC1C0D130F0C5D120F031F49F3F11F49A
S11303701EF490C10EF4E095E7FB86C1E92FD1D1BC
S113038080F3BA17620773078407950718F071F4AE
S11303909EF5E9C10EF4E0950B2EBA2FA02D0B01AA
S11303A0B90190010C01CA01A0011124FF27591BB6
S11303B099F0593F50F4503E68F11A16F040A22FBC
S11303C0232F342F4427585FF3CF4695379527952D
S11303D0A795F0405395C9F77EF41F16BA0B620B2C
S11303E0730B840BBAF09150A1F0FF0FBB1F661F73
S11303F0771F881FC2F70EC0BA0F621F731F841FB6
S113040048F4879577956795B795F7959E3F08F0DB
S1130410B3CF9395880F08F09927EE0F979587959A
S1130420089560D158F080E891E009F49EEF61D11D
S113043028F040E851E059F45EEF09C02BC193C1A4
S1130440E92FE0786ED168F3092E052AC1F3261747
S113045037074807590738F00E2E07F8E02569F0EA
S1130460E025E0640AC0EF6307F8009407FADB01B3
S1130470B9019D01DC01CA01AD01EF9343D040D124
S11304800AD05F91552331F02BED3FE049E450FD54
S113049049EC63CF0895DF93DD27B92FBF7740E898
S11304A05FE31616170648075B0710F4D92F62D1CD
S11304B09F938F937F936F93C7D1E8E6F0E0EDD0DD
S11304C01FD12F913F914F915F9167D1DD2349F067
S11304D09058A2EA2AED3FE049EC5FE3D0785D272B
S11304E04DDFDF910DC10CD00BC103D140F0FAD028
S11304F030F021F45F3F19F0C7C0511135C1CAC0B3
S113050010D198F39923C9F35523B1F3951B550BD7
S1130510BB27AA2762177307840738F09F5F5F4FD2
S1130520220F331F441FAA1FA9F333D00E2E3AF013
S1130530E0E830D091505040E695001CCAF729D02D
S1130540FE2F27D0660F771F881FBB1F261737077C
S11305504807AB07B0E809F0BB0B802DBF01FF27AC
S113056093585F4F2AF09E3F510568F08DC0FCC040
S11305705F3FECF3983EDCF3869577956795B795E6
S1130580F7959F5FC9F7880F911D9695879597F901
S11305900895E1E0660F771F881FBB1F621773077A
S11305A08407BA0720F0621B730B840BBA0BEE1F8F
S11305B088F7E0950895BDD088F09F5790F0B92F43
S11305C09927B751A0F0D1F0660F771F881F991FA4
S11305D01AF0BA95C9F712C0B13081F0C4D0B1E0B5
S11305E00895C1C0672F782F8827B85F39F0B93FC5
S11305F0CCF3869577956795B395D9F73EF49095A6
S11306008095709561957F4F8F4F9F4F0895E89423
S113061009C097FB3EF490958095709561957F4F46
S11306208F4F9F4F9923A9F0F92F96E9BB279395F4
S1130630F695879577956795B795F111F8CFFAF404
S1130640BB0F11F460FF1BC06F5F7F4F8F4F9F4F35
S113065016C0882311F096E911C0772321F09EE893
S1130660872F762F05C0662371F096E8862F70E0F9
S113067060E02AF09A95660F771F881FDAF7880FD3
S11306809695879597F9089597F99F6780E870E0A4
S113069060E008959FEF80EC0895DF93CF931F935C
S11306A00F93FF92EF92DF927B018C01689405C057
S11306B0DA2EEF0172D0FE01E894A59125913591CF
S11306C045915591AEF3EF0159DEFE019701A80162
S11306D0DA9479F7DF90EF90FF900F911F91CF910B
S11306E0DF91089500240A941616170618060906C1
S11306F0089500240A941216130614060506089594
S1130700092E0394000C11F4882352F0BB0F40F41B
S1130710BF2B11F460FF04C06F5F7F4F8F4F9F4F5B
S1130720089557FD9058440F551F59F05F3F71F0DD
S11307304795880F97FB991F61F09F3F79F0879544
S11307400895121613061406551FF2CF4695F1DFCD
S113075008C0161617061806991FF1CF869571055D
S1130760610508940895E894BB2766277727CB0191
S113077097F908959B01AC0160E070E080E89FE385
S1130780B2CE0BD0BDCFAEDF28F0B3DF18F0952387
S113079009F07ACF7FCF1124E7CFC3DFA0F3959F71
S11307A0D1F3950F50E0551F629FF001729FBB2754
S11307B0F00DB11D639FAA27F00DB11DAA1F649F00
S11307C06627B00DA11D661F829F2227B00DA11DB3
S11307D0621F739FB00DA11D621F839FA00D611D39
S11307E0221F749F3327A00D611D231F849F600D5A
S11307F0211D822F762F6A2F11249F5750408AF093
S1130800E1F088234AF0EE0FFF1FBB1F661F771F1E
S1130810881F91505040A9F79E3F510570F034CF86
S1130820A3CF5F3FECF3983EDCF38695779567950D
S1130830B795F795E7959F5FC1F7FE2B880F911D3C
S11308409695879597F908959B01AC019ACFF894F2
S1050850FFCFD4
S9030000FC
