S011000050726F6A6563745F312E73726563AC
S11300000C9434000C9449000C9449000C9449005D
S11300100C9449000C9449000C9449000C94490038
S11300200C9449000C9449000C9449000C94490028
S11300300C9449000C9449000C9449000C94490018
S11300400C9449000C9449000C9449000C94490008
S11300500C9449000C9449000C9449000C944900F8
S11300600C9449000C94490011241FBECFEFD8E032
S1130070DEBFCDBF11E0A0E0B1E0E2E1F1E002C0FB
S113008005900D92A030B107D9F70E947B000C9423
S113009087000C940000E0E8F0E0208122682083CF
S11300A0E1E8F0E020812961208390938700809328
S11300B0860008959093C5008093C40088E18093DE
S11300C0C10086E08093C200089520E0243610F435
S11300D02F5F01C020E0822F90E0909389008093ED
S11300E088003FEF81EE94E0315080409040E1F78A
S11300F000C00000EBCF8FEF84B98FEC90E00E943A
S11301005A008FE990E00E944B000E946500F89429
S1050110FFCF1B
S9030000FC
